{
  "transactions": [
    {
      "hash": "0x8b57854884ca775332eac96e5088fbf874b46d9888f98531d2b82b20ac82ed55",
      "transactionType": "CALL",
      "contractName": "DeFiGovernor",
      "contractAddress": "0xa2f72eb781dcd791f95e4c0e4bb26dcf11a94a6c",
      "function": "propose(address[],uint256[],bytes[],string)",
      "arguments": [
        "[0xC047D3248eE6F4D5ba570d8cD8D904C2D3a0A9F9]",
        "[0]",
        "[0xb13de2660000000000000000000000000000000000000000000000000000000000001f40]",
        "PIP-01: Increase LTV cap for ETH collateral to 80%"
      ],
      "transaction": {
        "from": "0x38636974ba624b5288cc0c973efed4cb3581619b",
        "to": "0xa2f72eb781dcd791f95e4c0e4bb26dcf11a94a6c",
        "gas": "0x18c3c",
        "value": "0x0",
        "input": "0x7d5e81e2000000000000000000000000000000000000000000000000000000000000008000000000000000000000000000000000000000000000000000000000000000c0000000000000000000000000000000000000000000000000000000000000010000000000000000000000000000000000000000000000000000000000000001a00000000000000000000000000000000000000000000000000000000000000001000000000000000000000000c047d3248ee6f4d5ba570d8cd8d904c2d3a0a9f900000000000000000000000000000000000000000000000000000000000000010000000000000000000000000000000000000000000000000000000000000000000000000000000000000000000000000000000000000000000000000000000100000000000000000000000000000000000000000000000000000000000000200000000000000000000000000000000000000000000000000000000000000024b13de2660000000000000000000000000000000000000000000000000000000000001f400000000000000000000000000000000000000000000000000000000000000000000000000000000000000000000000000000000000000000000000325049502d30313a20496e637265617365204c54562063617020666f722045544820636f6c6c61746572616c20746f203830250000000000000000000000000000",
        "nonce": "0x32",
        "chainId": "0x66eee"
      },
      "additionalContracts": [],
      "isFixedGasLimit": false
    },
    {
      "hash": "0x990ea2dce13866692dd70c603a4bfa9dfbf03668163249bf828e05e08794fcf2",
      "transactionType": "CALL",
      "contractName": "DeFiGovernor",
      "contractAddress": "0xa2f72eb781dcd791f95e4c0e4bb26dcf11a94a6c",
      "function": "propose(address[],uint256[],bytes[],string)",
      "arguments": [
        "[0xC047D3248eE6F4D5ba570d8cD8D904C2D3a0A9F9]",
        "[0]",
        "[0xfb01e7f20000000000000000000000000000000000000000000000000000000000001c20]",
        "PIP-02: Integrate Chainlink oracle for Arbitrum Sepolia"
      ],
      "transaction": {
        "from": "0x38636974ba624b5288cc0c973efed4cb3581619b",
        "to": "0xa2f72eb781dcd791f95e4c0e4bb26dcf11a94a6c",
        "gas": "0x18cfb",
        "value": "0x0",
        "input": "0x7d5e81e2000000000000000000000000000000000000000000000000000000000000008000000000000000000000000000000000000000000000000000000000000000c0000000000000000000000000000000000000000000000000000000000000010000000000000000000000000000000000000000000000000000000000000001a00000000000000000000000000000000000000000000000000000000000000001000000000000000000000000c047d3248ee6f4d5ba570d8cd8d904c2d3a0a9f900000000000000000000000000000000000000000000000000000000000000010000000000000000000000000000000000000000000000000000000000000000000000000000000000000000000000000000000000000000000000000000000100000000000000000000000000000000000000000000000000000000000000200000000000000000000000000000000000000000000000000000000000000024fb01e7f20000000000000000000000000000000000000000000000000000000000001c200000000000000000000000000000000000000000000000000000000000000000000000000000000000000000000000000000000000000000000000375049502d30323a20496e7465677261746520436861696e6c696e6b206f7261636c6520666f7220417262697472756d205365706f6c6961000000000000000000",
        "nonce": "0x33",
        "chainId": "0x66eee"
      },
      "additionalContracts": [],
      "isFixedGasLimit": false
    }
  ],
  "receipts": [
    {
      "status": "0x1",
      "cumulativeGasUsed": "0xf8ca6",
      "logs": [
        {
          "address": "0xa2f72eb781dcd791f95e4c0e4bb26dcf11a94a6c",
          "topics": [
            "0x7d84a6263ae0d98d3329bd7b46bb4e8d6f98cd35a7adb45c274c8b7fd5ebd5e0"
          ],
          "data": "0x903f78e90f533fd1743b4cba543f142c4927dc6eee377848af2819fd858551af00000000000000000000000038636974ba624b5288cc0c973efed4cb3581619b0000000000000000000000000000000000000000000000000000000000000120000000000000000000000000000000000000000000000000000000000000016000000000000000000000000000000000000000000000000000000000000001a000000000000000000000000000000000000000000000000000000000000002000000000000000000000000000000000000000000000000000000000000a5fa090000000000000000000000000000000000000000000000000000000000a6bee900000000000000000000000000000000000000000000000000000000000002a00000000000000000000000000000000000000000000000000000000000000001000000000000000000000000c047d3248ee6f4d5ba570d8cd8d904c2d3a0a9f900000000000000000000000000000000000000000000000000000000000000010000000000000000000000000000000000000000000000000000000000000000000000000000000000000000000000000000000000000000000000000000000100000000000000000000000000000000000000000000000000000000000000200000000000000000000000000000000000000000000000000000000000000000000000000000000000000000000000000000000000000000000000000000000100000000000000000000000000000000000000000000000000000000000000200000000000000000000000000000000000000000000000000000000000000024b13de2660000000000000000000000000000000000000000000000000000000000001f400000000000000000000000000000000000000000000000000000000000000000000000000000000000000000000000000000000000000000000000325049502d30313a20496e637265617365204c54562063617020666f722045544820636f6c6c61746572616c20746f203830250000000000000000000000000000",
          "blockHash": "0x6d400e3f5d3df36b001e5305e0fb5a80ae263a7fce54ac7f60e3acc6f765a37d",
          "blockNumber": "0x100b32d3",
          "blockTimestamp": "0x6a0a2602",
          "transactionHash": "0x8b57854884ca775332eac96e5088fbf874b46d9888f98531d2b82b20ac82ed55",
          "transactionIndex": "0x3",
          "logIndex": "0x1e",
          "removed": false
        }
      ],
      "logsBloom": "0x00000000000000000000000000000000000000000000000000000000000000000000000000000000000000000000000000000000000000000000000000000000000000000002000000000000000000000000000000000000000000000000000000000000000000000000000000000000000000000000000000000000000000000000000000000000000000000000000000000000000000000000000000000000080000000000000000001000000000000000000000000000000000000000000200000000000004000000000000000000000000000000000000000000000000000000000020000000000000000000000000000000000000000000000000000000",
      "type": "0x2",
      "transactionHash": "0x8b57854884ca775332eac96e5088fbf874b46d9888f98531d2b82b20ac82ed55",
      "transactionIndex": "0x3",
      "blockHash": "0x6d400e3f5d3df36b001e5305e0fb5a80ae263a7fce54ac7f60e3acc6f765a37d",
      "blockNumber": "0x100b32d3",
      "gasUsed": "0x12cff",
      "effectiveGasPrice": "0x1336750",
      "from": "0x38636974ba624b5288cc0c973efed4cb3581619b",
      "to": "0xa2f72eb781dcd791f95e4c0e4bb26dcf11a94a6c",
      "contractAddress": null,
      "gasUsedForL1": "0x1b6",
      "l1BlockNumber": "0xa5dde9",
      "timeboosted": false
    },
    {
      "status": "0x1",
      "cumulativeGasUsed": "0x12d8c",
      "logs": [
        {
          "address": "0xa2f72eb781dcd791f95e4c0e4bb26dcf11a94a6c",
          "topics": [
            "0x7d84a6263ae0d98d3329bd7b46bb4e8d6f98cd35a7adb45c274c8b7fd5ebd5e0"
          ],
          "data": "0xeb1b4f5356d9feb234da76ce0e360a9355554ef0f6b67355c61a5e7ac4c0ccc900000000000000000000000038636974ba624b5288cc0c973efed4cb3581619b0000000000000000000000000000000000000000000000000000000000000120000000000000000000000000000000000000000000000000000000000000016000000000000000000000000000000000000000000000000000000000000001a000000000000000000000000000000000000000000000000000000000000002000000000000000000000000000000000000000000000000000000000000a5fa090000000000000000000000000000000000000000000000000000000000a6bee900000000000000000000000000000000000000000000000000000000000002a00000000000000000000000000000000000000000000000000000000000000001000000000000000000000000c047d3248ee6f4d5ba570d8cd8d904c2d3a0a9f900000000000000000000000000000000000000000000000000000000000000010000000000000000000000000000000000000000000000000000000000000000000000000000000000000000000000000000000000000000000000000000000100000000000000000000000000000000000000000000000000000000000000200000000000000000000000000000000000000000000000000000000000000000000000000000000000000000000000000000000000000000000000000000000100000000000000000000000000000000000000000000000000000000000000200000000000000000000000000000000000000000000000000000000000000024fb01e7f20000000000000000000000000000000000000000000000000000000000001c200000000000000000000000000000000000000000000000000000000000000000000000000000000000000000000000000000000000000000000000375049502d30323a20496e7465677261746520436861696e6c696e6b206f7261636c6520666f7220417262697472756d205365706f6c6961000000000000000000",
          "blockHash": "0x1abc6f96a954f49c7d985ea30637c0384ef52c14784182826fff1d7477144949",
          "blockNumber": "0x100b32df",
          "blockTimestamp": "0x6a0a2606",
          "transactionHash": "0x990ea2dce13866692dd70c603a4bfa9dfbf03668163249bf828e05e08794fcf2",
          "transactionIndex": "0x1",
          "logIndex": "0x0",
          "removed": false
        }
      ],
      "logsBloom": "0x00000000000000000000000000000000000000000000000000000000000000000000000000000000000000000000000000000000000000000000000000000000000000000002000000000000000000000000000000000000000000000000000000000000000000000000000000000000000000000000000000000000000000000000000000000000000000000000000000000000000000000000000000000000080000000000000000001000000000000000000000000000000000000000000200000000000004000000000000000000000000000000000000000000000000000000000020000000000000000000000000000000000000000000000000000000",
      "type": "0x2",
      "transactionHash": "0x990ea2dce13866692dd70c603a4bfa9dfbf03668163249bf828e05e08794fcf2",
      "transactionIndex": "0x1",
      "blockHash": "0x1abc6f96a954f49c7d985ea30637c0384ef52c14784182826fff1d7477144949",
      "blockNumber": "0x100b32df",
      "gasUsed": "0x12d8c",
      "effectiveGasPrice": "0x131aa00",
      "from": "0x38636974ba624b5288cc0c973efed4cb3581619b",
      "to": "0xa2f72eb781dcd791f95e4c0e4bb26dcf11a94a6c",
      "contractAddress": null,
      "gasUsedForL1": "0x1be",
      "l1BlockNumber": "0xa5dde9",
      "timeboosted": false
    }
  ],
  "libraries": [],
  "pending": [],
  "returns": {},
  "timestamp": 1779049992946,
  "chain": 421614,
  "commit": "d492e74"
}